:020000040800F2
:1000000040360120550200083D4100082137000814
:1000100039410008A92D0008835E00080000000097
:100020000000000000000000000000009D0100082A
:10003000E133000800000000F1010008D14B000886
:100040006F0200086F0200086F0200086F020008CC
:100050006F0200086F0200086F0200086F020008BC
:100060006F0200086F0200086F0200086F020008AC
:100070006F0200086F0200086F0200086F0200089C
:100080006F0200086F0200086F0200086F0200088C
:10009000AD2D00086F0200086F0200086F02000813
:1000A0006F0200086F0200086F0200086F0200086C
:1000B0006F0200086F0200086F0200086F0200085C
:1000C0006F0200086F0200086F0200086F0200084C
:1000D0006F0200088558000851590008055B0008A8
:1000E0006F0200086F0200086F0200086F0200082C
:1000F0006F0200086F0200086F0200086F0200081C
:100100006F0200086F0200086F0200086F0200080B
:10011000B1560008A15700086F0200086F020008DE
:100120006F0200086F0200086F0200086F020008EB
:100130006F0200086F0200086F0200086F020008DB
:100140006F0200086F0200086F0200086F020008CB
:100150006F0200086F0200086F0200086F020008BB
:100160006F0200086F0200086F0200086F020008AB
:100170006F0200086F0200086F0200086F0200089B
:100180006F0200086F020008DFF80CD000F020FCBE
:100190000048004759850008403601202A4B19685D
:1001A0000868B0E8F04F80F30988BFF36F8F4FF015
:1001B000000080F3118870470000000006480068C6
:1001C000006880F3088862B661B6BFF34F8FBFF353
:1001D0006F8F00DF00BF00BF08ED00E0DFF80C000C
:1001E000016841F470010160704700BF88ED00E0D4
:1001F000EFF30980BFF36F8F134B1A681EF0100FD7
:1002000008BF20ED108A20E9F04F106008B44FF0CD
:10021000500080F31188BFF34F8FBFF36F8F0AF048
:100220007BFD4FF0000080F3118808BC1968086856
:10023000B0E8F04F1EF0100F08BFB0EC108A80F34A
:100240000988BFF36F8F704768010020EFF30580C6
:10025000704700000648804706480047FEE7FEE773
:10026000FEE7FEE7FEE7FEE7FEE7FEE7FEE7FEE766
:10027000E14B0008890100082DE9F0410024061B2C
:10028000254671F1000605DA01240027D0EB0700AE
:1002900067EB0101161E73F1000605DA0027D2EBA9
:1002A0000702012567EB030300F06BFA86460E4652
:1002B00017469C46AC4204D00025D0EB050E65EBFA
:1002C000010624B10020D2EB000760EB030C70465E
:1002D00031463A466346BDE8F08140EA01039B0798
:1002E00003D009E008C9121F08C0042AFAD203E0AB
:1002F00011F8013B00F8013B521EF9D27047D2B20F
:1003000001E000F8012B491EFBD270470022F6E7FE
:1003100010B513460A4604461946FFF7F0FF20467B
:1003200010BD30B504460020034600E05B1C93423C
:1003300003D2E05CCD5C401BF8D030BD2DE9FE4F10
:10034000804681EA0300C00F0C46009021F0004176
:1003500023F00045B8EB0200A94105D240462146F2
:1003600090461C460B46024623F00040104347D0FF
:10037000270DC7F30A00C3F30A510290401A0190F7
:1003800040286BDAC3F3130040F4801B00989246B8
:1003900020B10023D2EB030A63EB0B0B0198594603
:1003A000C0F14002504600F01DFA06460D46504688
:1003B0005946019A00F035FA10EB0800614100241B
:1003C00087EA115284EAE7731A4340D0009A62B375
:1003D000019A012A4FEA075215DC001B61EB02016A
:1003E0004FF0004202EA0752CDE90042001C41F5FD
:1003F000801132462B4600F06CFA03B0BDE8F08F56
:1004000040462146F9E7001B61EB0201001C41F563
:10041000801300185B412018A2F5001747EB030179
:1004200040EAD570B6196D4111E06D084FEA360605
:1004300045EAC0754FEA0752001B61EB0201001C40
:1004400041F5801149084FEA300000195141324608
:100450002B4603B0BDE8F04F00F02CBA0098012203
:1004600040000023D0EB020263EBE07300982146CA
:100470004FEAE074B8EB000061EB0401E9E783F0B8
:1004800000435BE781F0004158E72DE9FE4F81EA28
:10049000030404F0004421F0004100944FF0000BED
:1004A00023F0004350EA01045ED052EA03045BD01B
:1004B000C3F30A54C1F30A552C44A4F2F334019453
:1004C000A0FB0254C1F3130141F48011C3F31303E1
:1004D00043F4801301FB024400FB034E840A970A95
:1004E00044EA815447EA8357A4FB076802958D0AC2
:1004F00005FB07854FEA932C04FB0C542705029D4E
:100500004FEA065847EA1637B5EB08056EEB070CBD
:10051000870E920E47EA811742EA8312A7FB020177
:10052000B6EB0B0164EB00042B0D43EA0C335E18B1
:1005300044EB1C50DA465146E7FB0201C5F31304B5
:100540004FEA0B3343EA14534FEA0432019C43EA67
:100550000603A4F10C040294009CCDE900B400F061
:10056000B8F903B0BDE8F08F00200146F9E72DE9A6
:10057000F04D81EA030404F0004B21F000451446DD
:100580004FF0000A23F0004150EA050220D054EA5F
:1005900001021DD0C5F30A570246C5F31303C1F388
:1005A0001300C1F30A5640F4801543F48013A7EBFF
:1005B0000608101BD64608F2FD3873EB050002D37F
:1005C00008F1010801E092185B41B8F1000F03DA6D
:1005D00000200146BDE8F08D00204FF48011064652
:1005E00084460EE0171B73EB050705D3121B63EB64
:1005F000050306434CEA010C49084FEA3000921803
:100600005B4150EA0107EDD152EA030012D082EAC1
:10061000040083EA0501084305D0101BAB4106D254
:100620000122002306E000224FF0004302E06FF0B9
:10063000010253101AEB06004CEB085110EB0A00B4
:1006400041EB0B01BDE8F04D00F034B90EB5C10F20
:1006500080EAE0700844CA07002140F233438DE885
:100660000E000A460B4600F034F903B000BD0EB58B
:1006700040F2334102910021CDE900110A460B46B8
:1006800000F027F903B000BD70B5C1F30A5201F0C4
:1006900000450024C1F3130140F2FF3341F48011FF
:1006A0009A4201DA002070BD40F233439A42A2F22E
:1006B000334203DC524200F0A4F800E090402C43A7
:1006C000F1D0404270BDC1F30A5210B5C1F313011D
:1006D00040F2FF3341F480119A4201DA002010BD4C
:1006E00040F233439A42A2F2334203DC524200F01A
:1006F00088F810BD904010BD00F0004230F000407E
:100700000AD0C10D01F56071C0F3160042EA015133
:10071000C20840071143704700200146704701F0AE
:10072000004330B421F0004150EA010206D00A0D26
:10073000A2F56072C1F31301002A02DC30BC002074
:100740007047440F44EAC104C100E01830BC00EB1C
:10075000C25000F078B830B50B4601460020202288
:10076000012409E021FA02F59D4205D303FA02F5BE
:10077000491B04FA02F52844151EA2F10102F1DC1E
:1007800030BD2DE9F05F0546002092469B46884625
:100790000646814640241BE02846414647462246FD
:1007A00000F02FF853465A46C01A914110D3114613
:1007B0001846224600F016F82D1A67EB01084F463E
:1007C00022460120002100F00DF817EB00094E41F0
:1007D000201EA4F10104DFDC484631462A46434688
:1007E000BDE8F09F202A04DB203A00FA02F1002045
:1007F00070479140C2F1200320FA03F3194390405F
:100800007047202A04DB203A21FA02F000217047C9
:1008100021FA02F3D040C2F1200291400843194668
:100820007047202A06DBCB17203A41FA02F043EA50
:10083000E07306E041FA02F3D040C2F12002914099
:100840000843194670470029A8BF7047401C49005B
:1008500008BF20F00100704710B4B0FA80FC00FA25
:100860000CF050EA010404BF10BC704749B1CCF150
:10087000200421FA04F411FA0CF118BF01212143DC
:100880000843A3EB0C01CB1D4FEA00614FEA102097
:1008900042BF002010BC704700EBC3501044002939
:1008A000A4BF10BC7047401C490008BF20F00100E5
:1008B00010BC704710B5141E73F1000408DA401C18
:1008C00041F1000192185B411A4301D120F001006F
:1008D00010BD2DE9F04D92469B4611B1B1FA81F25F
:1008E00002E0B0FA80F220329046FFF77BFF044628
:1008F0000F4640EA0A0041EA0B0153465A460843B4
:1009000013D0114653EA010019D0C8F140025046F5
:10091000FFF777FF05460E46504659464246FFF719
:1009200061FF084305D0012004E020463946BDE8B8
:10093000F08D0020054346EAE0762C4337430A98C1
:100940006305E40AA0EB08000022FD0A44EA4754CC
:100950000A3002D500200146E9E701051019694176
:10096000DDE9084500196941BDE8F04DA2E7C1F392
:100970000A52C1F3130140F2FF3341F480119A424D
:1009800002DA00200146704740F233439A42A2F255
:10099000334202DC5242FFF734BFFFF723BF0000AF
:1009A00030B5041E71F1000404DB4FF000444042F6
:1009B00064EB0101141E73F1000405DB1C464FF0CB
:1009C0000043524263EB0403994208BF904230BD9A
:1009D000064C074D06E0E06840F0010394E807008C
:1009E00098471034AC42F6D3FFF7D2FBA0D30008EF
:1009F000C0D300082DE9F04D00231A461B1A8A4186
:100A000003DB00200146BDE8F08DC1F30A52C1F3BB
:100A1000130141F480154FF0000BD10702D10018EB
:100A20006D41521E0027044640F2FF11384601EB8B
:100A3000620A3E468046024600204FF48011FFF7CE
:100A4000E0FEC2197141BB1846EB0100B4EB030C88
:100A500075EB000C04D3E41A65EB000517460E464F
:100A6000241908F101006D4180463428E3DDF919AD
:100A700046EB0600091BA84103D24FF0FF32134694
:100A800001E0002213461BEB070046EB0A51BDE8CC
:100A9000F04DFFF70FBF70B58C1810F8015B15F023
:100AA000070301D110F8013B2A1106D110F8012BE0
:100AB00003E010F8016B01F8016B5B1EF9D12B0705
:100AC00005D40023521E0DD401F8013BFAE710F8BB
:100AD000013BCB1A921C03E013F8015B01F8015BA8
:100AE000521EF9D5A142D8D3002070BD21B1826831
:100AF00042F00102826003E0826822F0010282601B
:100B0000704700000021084A1168084A1140D0E9E6
:100B100000231A4383681A43C3681A431143044AE3
:100B2000C2F804137047000004230140E030FCFFCA
:100B3000002001400146C86C80B270470246002088
:100B400013680B400BB1012000E00020704700004B
:100B500030B50246002000235068104C20400D792B
:100B60000C6844EA05242043506090680C4C2040F7
:100B7000D1E903542C438D682C434D7944EA450454
:100B800020439060D06A20F470000C7D641EE4B2B3
:100B9000234340EA0350D06230BD0000FFFEFFFC5B
:100BA000FDF7FFC0F0B504460D4600200021092DD9
:100BB00011DDE068A5F10A0606EB4607072606FAEE
:100BC00007F18843A5F10A0606EB460603FA06F18B
:100BD0000843E0600CE0206905EB4507072606FAAC
:100BE00007F1884305EB450603FA06F10843206147
:100BF000072A0FDA606B561E06EB86071F2606FAD9
:100C000007F18843561E06EB860605FA06F10843EF
:100C1000606322E00D2A0FDA206BD61F06EB8607F1
:100C20001F2606FA07F18843D61F06EB860605FA4B
:100C300006F10843206310E0E06AA2F10D0606EB1E
:100C400086071F2606FA07F18843A2F10D0606EB78
:100C5000860605FA06F10843E062F0BD816841F0BE
:100C600080418160704700001CB50121102003F015
:100C7000D7FA0220009001208DF8040000208DF8A2
:100C8000060003208DF8050001208DF80700694655
:100C9000034802F099FC0221014802F009FD1CBD45
:100CA0000010024000B58BB00121082003F0B8FA13
:100CB0000121480603F0C4FA0320099002208DF8B0
:100CC000280000208DF82A0003208DF8290001203B
:100CD0008DF82B0009A92D4802F076FC092200218D
:100CE0002A4802F0B9FC09220121284802F0B4FC8C
:100CF00000208DF81A008DF81B008DF81C000120D3
:100D00008DF81D0000208DF81E008DF81F008DF855
:100D100016008DF8170003208DF8180001208DF8BB
:100D200019000620ADF8140005A9194802F0FDF8D5
:100D300000208DF80E00ADF80400ADF80600ADF807
:100D40000800ADF80A008DF80F0001208DF81000A2
:100D50000020ADF80C0001208DF8110001A802F070
:100D600057F8012202210A4802F0D6F814208DF823
:100D7000200001208DF821008DF822008DF823003D
:100D800008A803F0DDF90BB000BD0000000C024024
:100D90000064004010B5394801F012FF00286CD003
:100DA00036480078312817D13448007940B200EB3A
:100DB000400040003249C8803048C07840B2A0EBC3
:100DC0008000400008812D48407840B26FF0130148
:100DD00010FB01F02A49488128480078322817D1B1
:100DE0002648007940B200EB400040002449C8800A
:100DF0002248C07840B2A0EB8000400008811F4824
:100E0000407840B26FF0130110FB01F01C4948819B
:100E10001A48007833280ED11848C07840B2A0EBA9
:100E2000800040001649C8801448807840B2A0EB8A
:100E300000104000488111480078412812D10F4825
:100E40004078104908700D48807848700B48C07889
:100E500088700A480079C8700848407908710748C6
:100E60008079487105480078422806D103484078C7
:100E7000552802D101200449087010BD88020020C5
:100E8000E80100202C0000207C0000204048007871
:100E900073287BD13E480079C0F180003D49097834
:100EA00010FB01F000B23C49C8803948C078C0F15D
:100EB00080003849097810FB01F000B236490881FA
:100EC00034480078800032494979C1F1800110FB33
:100ED00001F000B2304948812D48407800F001000F
:100EE00018B101202D49087012E02C48007878B123
:100EF0002B480078062805DA29480078401C284944
:100F0000087002E00120264908700020234908707B
:100F10001F48407800F0020018B1012021490870F4
:100F200015E02048007890B11A480078022805DDC5
:100F300018480078401E1749087005E0022015493E
:100F400008700120184908700020164908701048E0
:100F5000407800F0040018B101201449087015E031
:100F60001248007890B10B480078092805DA094842
:100F70000078401C0749087005E009200549087001
:100F800001200949087000200849087070470000D6
:100F90007E000020DF000020E8010020DC000020AF
:100FA0002C000020DD0000207D000020DE0000205D
:100FB00010B52DED088B394801F048FB002869D0A9
:100FC0003648C089B0F5FA7F64DA34480089B0F554
:100FD000FA7F05DAB7EE080A314880ED000A0FE023
:100FE0002E480089B0F57A7F05DAB7EE000A2C4862
:100FF00080ED000A04E09FED2B0A294880ED000AED
:1010000026484088A0F5787000EE100AB8EEC00AB5
:101010002348D0ED000A20EE200ABDEEC00A10EEF3
:10102000100A00B22049C8801C480088A0F57870DA
:1010300000EE100AB8EEC00A1948D0ED000AF1EE31
:10104000600A20EE200ABDEEC00A10EE100A00B2BF
:1010500008811249C988A1F57870FFF7F7FA41ECC9
:10106000190B0F480068FFF747FB41EC1B0B9FED86
:101070000F0B53EC102BFFF708FA41EC1A0B53EC53
:10108000192BFFF702FA41EC180BFFF7FDFA00B23B
:1010900005494881BDEC088B10BD00009802002076
:1010A000E00000203333333FE8010020000000005F
:1010B000000014C010B5042003F076FD0E4800684F
:1010C0000E49B0FBF1F00E4908700B4800680B495F
:1010D000B0FBF1F44FF47A7044434FF0E020006924
:1010E00040F002004FF0E0210861084644610069C9
:1010F00040F00100086110BD1800002040420F00C0
:10110000E400002010B504464FF47A7104FB01F0AE
:1011100000F002F810BD000070B5034600224FF049
:10112000E02675690D4E367803FB06F44FF0E02695
:10113000B16910E04FF0E026B06988420BD08842D8
:1011400002D20E1A324402E02E1A0E4432440146F4
:10115000A24200D300E0EDE700BF70BDE400002034
:101160001CB50121102003F05BF804200090012041
:101170008DF8040000208DF8060003208DF805008E
:1011800001208DF807006946094802F01DFA082081
:10119000009001208DF806006946054802F014FA17
:1011A0000120044908600449C1F88C021CBD0000FC
:1011B00000100240880242420000424270B50446DC
:1011C000002602F05DFC2112A02202EB4101C8B210
:1011D00002F0FEFB02F0E0FC2546E11704EB116192
:1011E0000912A4EB0121C8B202F0F2FB02F0D4FC18
:1011F00002F046FCA12002F0EBFB02F0CDFC002047
:1012000002F08AFB064602F07BFC304670BD70B5EA
:1012100004460E4602F034FC2112A02202EB4101EA
:10122000C8B202F0D5FB02F0B7FC2546E11704EB8B
:1012300011610912A4EB0121C8B202F0C9FB02F04E
:10124000ABFC304602F0C4FB02F0A6FC02F058FCF6
:1012500042F21070FFF760FF70BD4FF08040406AAF
:1012600080B2704700B589B00121084602F0D8FF6E
:101270000121022002F0D4FF0121084602F0E0FF24
:1012800001220F21294802F0E7F901220321284811
:1012900002F0E2F94FF40040079002208DF82000A0
:1012A00003208DF8210000208DF8220001208DF808
:1012B000230007A91D4802F087F90820079007A915
:1012C0001B4802F081F94FF0804003F075FD04A83F
:1012D00004F05EF80020ADF810004FF6FF700590A6
:1012E0000020ADF81800ADF8120004A94FF08040BE
:1012F00004F00CF800231A4603214FF0804003F05D
:1013000023FE01A803F078FE0620ADF80C0001A929
:101310004FF0804003F039FE00204FF080414862DA
:101320000121880703F02DFD09B000BD0000024037
:10133000000402404FF08041486270470148006855
:1013400080B270472404004000B589B0012102201A
:1013500002F066FF0121022002F072FF0222042146
:10136000244802F079F902220521224802F074F99A
:101370003020079002208DF8200003208DF82100F6
:1013800000208DF8220001208DF8230007A91948BC
:1013900002F01AF9184803F00FFD04A803F0F8FF53
:1013A0000020ADF810004FF6FF7005900020ADF85A
:1013B0001800ADF8120004A90F4803F0A7FF00239E
:1013C0001A4603210C4803F0BFFD01A803F014FEE8
:1013D0000620ADF80C0001A9074803F0D6FD002057
:1013E0000549243108600121034803F0CAFC09B013
:1013F00000BD0000000402400004004001490860F4
:10140000704700002404004000B589B0012108465F
:1014100002F006FF0121082002F012FF0222002143
:10142000244802F019F902220121224802F014F99D
:101430000320079002208DF8200003208DF8210062
:1014400000208DF8220001208DF8230007A91948FB
:1014500002F0BAF8184803F0AFFC04A803F098FFB4
:101460000020ADF810004FF6FF7005900020ADF899
:101470001800ADF8120004A90F4803F047FF00233D
:101480001A4603210C4803F05FFD01A803F0B4FDE8
:101490000620ADF80C0001A9074803F076FD0020F6
:1014A0000549243108600121034803F06AFC09B0B2
:1014B00000BD000000000240000C004000B589B0F3
:1014C0000121082002F0ACFE0121042002F0B8FE48
:1014D00002220C21244802F0BFF802220D212248EA
:1014E00002F0BAF84FF44050079002208DF8200027
:1014F00003208DF8210000208DF8220001208DF8B6
:10150000230007A9184802F05FF8184803F054FCBC
:1015100004A803F03DFF0020ADF810004FF6FF7067
:1015200005900020ADF81800ADF8120004A90F488E
:1015300003F0ECFE00231A4603210C4803F004FDDF
:1015400001A803F059FD0620ADF80C0001A90748D9
:1015500003F01BFD002005492431086001210348E8
:1015600003F00FFC09B000BD000C02400008004071
:101570001CB50121102002F053FE0121094802F0A0
:1015800099F80120009000208DF8040003208DF8C8
:10159000050001208DF807006946024802F014F8A2
:1015A0001CBD0000001002400348006808B901207B
:1015B00070470020FCE70000000242421CB50121F8
:1015C000082002F02DFE0820009001208DF8040074
:1015D00000208DF8060003208DF8050001208DF80D
:1015E00007006946084801F0EFFF0821064802F0AD
:1015F00061F8102000906946034801F0E5FF1021D2
:10160000014802F057F81CBD000C024010B5164806
:101610000078012802D102F0C9FB24E012480078CA
:10162000022802D102F0CCFB1DE00F48007803280D
:1016300002D102F03BFC16E00B480078042802D1EE
:1016400002F03CFC0FE008480078052802D102F0C7
:101650008DFC08E004480078062802D102F0B8FCAE
:1016600001E002F0A3FB10BD2C00002000B58BB000
:101670000121102002F0D4FD0121084602F000FEF5
:1016800001220921354801F0E7FF01220B213348EF
:1016900001F0E2FF01220D21304801F0DDFF0122BF
:1016A0000E212E4801F0D8FF4FF4D44009900220BB
:1016B0008DF8280003208DF8290000208DF82A00DD
:1016C00001208DF82B0009A9244801F07DFF41F28B
:1016D000670007900120ADF818000020ADF81A004F
:1016E000ADF8200006A91E4803F010FE6020ADF8FA
:1016F00004000120ADF8060000200390ADF81000B2
:1017000001A9174803F082FC0821154803F0BCFC2E
:1017100001A9134803F0C2FC0821114803F010FD91
:1017200001A90F4803F01AFD08210D4803F066FDDA
:1017300001A90B4803F06CFD0821094803F0A4FD42
:101740000121074803F011FB0121054803F019FBB3
:101750000121034803F021FB0BB000BD0010024043
:101760000000014070B505462C4641F268008442F5
:1017700000DD04460E48844200DA0446002C0BDDEE
:1017800041F26800011B0B4803F08BFD41F2680138
:10179000084803F088FD0AE041F268002118054876
:1017A00003F081FD41F26801024803F07AFD70BD4B
:1017B00098EFFFFF0000014070B505462C4641F24E
:1017C0006800844200DD04460E48844200DA044684
:1017D000002C0BDD41F268010B4803F066FD41F27D
:1017E0006800011B084803F062FD0AE041F268014D
:1017F000054803F05CFD41F268002118024803F03F
:1018000054FD70BD98EFFFFF0000014000B58BB0A4
:101810000121102002F004FD0121080402F030FD36
:1018200003220521504801F017FF032206214E48EC
:1018300001F012FF6020099002208DF8280003209B
:101840008DF8290000208DF82A0001208DF82B004A
:1018500009A9454801F0B8FE41F267000790012050
:10186000ADF818000020ADF81A00ADF8200006A968
:101870003E4803F04BFD6020ADF804000120ADF8B8
:10188000060000200390ADF8100001A9374803F0CE
:10189000BDFB0821354803F0F7FB01A9334803F0ED
:1018A000FDFB0821314803F04BFC01212F4803F0D8
:1018B0005CFA01212D4803F064FA0121022002F0B4
:1018C000AFFC0121402002F0BBFC09220E21284878
:1018D00001F0C2FE09220F21254801F0BDFE4FF4A0
:1018E0004040099002208DF8280003208DF829003F
:1018F00000208DF82A0001208DF82B0009A91C4832
:1019000001F062FE41F2670007900020ADF8180078
:10191000ADF81A00ADF8200006A9164803F0F6FC51
:101920006020ADF804000120ADF80600002003900F
:10193000ADF8100001A90F4803F068FB08210D481D
:1019400003F0A2FB01A90B4803F0A8FB08210948FA
:1019500003F0F6FB0121074803F007FA01210548CF
:1019600003F00FFA0BB000BD001002400040014030
:10197000000402400018004070B505462C4641F2B4
:101980006800844200DD04460E48844200DA0446C2
:10199000002C0BDD41F268010B4803F082FC41F2A0
:1019A0006800011B084803F07EFC0AE041F2680170
:1019B000054803F078FC41F268002118024803F062
:1019C00070FC70BD98EFFFFF0040014070B5054608
:1019D0002C4641F26800844200DD04460E488442F1
:1019E00000DA0446002C0BDD41F268010B4803F0DD
:1019F00058FC41F26800011B084803F054FC0AE05F
:101A000041F26801054803F04EFC41F268002118DC
:101A1000024803F046FC70BD98EFFFFF001800403D
:101A20001CB50446062269463B2002F071FB9DF876
:101A300001009DF8001040EA012000B220809DF8CE
:101A400003009DF8021040EA012000B260809DF87A
:101A500005009DF8041040EA012000B2A0801CBDE2
:101A60001CB5044606226946432002F051FB9DF84E
:101A700001009DF8001040EA012000B220809DF88E
:101A800003009DF8021040EA012000B260809DF83A
:101A900005009DF8041040EA012000B2A0801CBDA2
:101AA0001CB50121022002F0BBFB40200090012068
:101AB0008DF8040000208DF8060003208DF8050045
:101AC00001208DF8070069461A4801F07DFD80204D
:101AD000009000208DF806006946164801F074FD5C
:101AE0000120154908601549C1F89C0280216B202E
:101AF00002F019FB1248FFF70FFB00216B2002F0E8
:101B000012FB18211B2002F00EFB00211C2002F00A
:101B10000AFB0021382002F006FB0021232002F0FE
:101B200002FB01216B2002F0FEFA00216C2002F082
:101B3000FAFA1CBD000402409882404200804042F4
:101B4000A086010010B50446E006010E1C2002F03C
:101B5000EAFA10BD10B5044621461A2002F0E3FA55
:101B600010BD10B50446E006010E1B2002F0DBFAA2
:101B700010BD70B50446B4F57A7F01DD4FF47A7478
:101B80000A2C00DA0A244FF47A7090FBF4F0401E1D
:101B9000C5B22946192002F0C6FA70BD70B50024FE
:101BA00015E004F1B001C8B202F024FB002002F0FD
:101BB00021FB102002F01EFB002504E0002002F0B3
:101BC00029FB681CC5B2802DF8DB601CC4B2082C50
:101BD000E7DB70BD2DE9F04705460E4617469846EF
:101BE0004FF000090024A7F1200000F0FF097B2D31
:101BF0002BDA082E29DAB8F1000F14D03146284626
:101C000002F0E4FA00BF0BE009EB490104EB4101EB
:101C10000F4A515CC943C8B202F0FCFA601CC4B25E
:101C2000062CF1DB11E03146284602F0CFFA002401
:101C300009E009EB490104EB4101054A505C02F05F
:101C4000E9FA601CC4B2062CF3DBBDE8F0870000A3
:101C500040C400082DE9F04105460E4614461F46D3
:101C60000A2C07DA04F13000C2B23B46314628465E
:101C7000FFF7B0FFBDE8F0812DE9F05F05460E46A5
:101C800017469846DDE90A9B7F2D01DC072E01DD12
:101C9000BDE8F09FE819802803DC06EB080008285F
:101CA00000DDF5E7BBF1000F18D0344613E0214604
:101CB000284602F08BFAAA4609E019F8012BD14315
:101CC000C8B202F0A7FA0AF1010000F0FF0ABA4513
:101CD000F3DB601CC4B24445E9DB15E0344611E097
:101CE0002146284602F072FAAA4607E019F8010BCD
:101CF00002F090FA0AF1010000F0FF0ABA45F5DBA4
:101D0000601CC4B24445EBDB00BFC1E72DE9F041E4
:101D100004460D461646984600277B2C14DA082DFB
:101D200012DA0EE0F25D434629462046FFF752FFE5
:101D3000A01DC4B27A2C02DD0024681CC5B2781C38
:101D4000C7B2F05D0028EDD1BDE8F0812DE9FE4F6E
:101D500080468A4691461D46DDE90C7B002D76DDE6
:101D6000E8190A2873DAB9F1000F02DAC9F100069E
:101D700000E04E460A20B6FBF0F100FB11608DF842
:101D800001006420B6FBF0F100FB11600A21B0FBFA
:101D9000F1F08DF802004FF47A70B6FBF0F100FB21
:101DA00011606421B0FBF1F0C0B28DF8030042F283
:101DB0001070B6FBF0F100FB11604FF47A71B0FBCC
:101DC000F1F0C0B28DF804005948B6FBF0F100FB09
:101DD000116042F21071B0FBF1F0C0B28DF8050055
:101DE0005448B6FBF0F100FB11605149B0FBF1F033
:101DF000C0B28DF806005048B6FBF0F100FB116050
:101E00004C49B0FBF1F0C0B28DF807004B48B6FB6F
:101E1000F0F100FB11604849B0FBF1F0C0B28DF861
:101E200008004748B6FBF0F100FB11604349B0FBE6
:101E3000F1F0C0B28DF80900B9F1000F41DA0023CA
:101E40002D2251464046FFF7C5FE002412E037E040
:101E5000E919091B491E1DF8012004EB440308F190
:101E6000060101EB4301C8B25B465146FFF7F2FEA3
:101E7000601CC4B2681EA042EADC002F56D005EBFD
:101E8000450108EB4101C8B25B462E225146FFF7DF
:101E9000A1FE002412E005EB450108EB4101891D7C
:101EA00004EB440301EB4301C8B2391B1DF80120C8
:101EB0005B465146FFF7CEFE601CC4B2BC42EADB73
:101EC00034E000240EE0E919091B1DF8012004EBA1
:101ED000440108EB4101C8B25B465146FFF7BAFE28
:101EE000601CC4B2AC42EEDB07B305EB450108EB66
:101EF0004101C8B25B462E225146FFF76BFE00241B
:101F000012E005EB450108EB4101891D04EB440398
:101F100001EB4301C8B2391B1DF801205B46514655
:101F2000FFF798FE601CC4B2BC42EADBBDE8FE8F3E
:101F3000A086010040420F008096980000E1F50560
:101F400000CA9A3B00B587B00121084602F068F943
:101F50000121080302F094F9A020009002208DF8DE
:101F6000040000208DF8060003208DF805000120F4
:101F70008DF807006946574801F026FB05221146F7
:101F8000544801F069FB05220721524801F064FB27
:101F90005020009001208DF8040000208DF80600EC
:101FA00003208DF8050001208DF807006946494897
:101FB00001F00AFB0020ADF808004FF48270ADF884
:101FC0000A000020ADF80C000220ADF80E00012040
:101FD000ADF810004002ADF812000020ADF814007A
:101FE000ADF816000720ADF8180002A93A4802F033
:101FF000C2FA0121384802F09BFAFF2002F070FA81
:102000004021344801F056FB6420FFF77BF8402163
:10201000304801F04DFBC820FFF774F840212D48EF
:1020200001F048FBAE2002F0E5F8002002F0E2F8F3
:10203000102002F0DFF8402002F0DCF8812002F0EE
:10204000D9F8EF2002F0D6F8A12002F0D3F8C8208A
:1020500002F0D0F8A62002F0CDF8A82002F0CAF8CD
:102060003F2002F0C7F8D32002F0C4F8002002F0AD
:10207000C1F8D52002F0BEF8802002F0BBF8D920CC
:1020800002F0B8F8F12002F0B5F8DA2002F0B2F868
:10209000122002F0AFF8DB2002F0ACF8402002F092
:1020A000A9F8202002F0A6F8022002F0A3F88D2063
:1020B00002F0A0F8142002F09DF8A42002F09AF893
:1020C000A62002F097F8AF2002F094F8FFF766FD23
:1020D00007B000BD00000240003001401CB50121E6
:1020E000102002F09DF84FF48050009000208DF8F1
:1020F000040003208DF8050002208DF807006946D2
:102100001F4801F061FA4FF48060009001208DF8C3
:10211000040000208DF8060003208DF80500012042
:102120008DF807006946164801F04EFA4FF48070AA
:10213000009001208DF8040000208DF80600032097
:102140008DF8050001208DF8070069460C4801F064
:102150003BFA8020009001208DF8040000208DF8CB
:10216000060003208DF8050001208DF80700694660
:10217000034801F029FA0120024908601CBD000053
:1021800000100240A002424200B597B00121042095
:1021900002F046F80121C80302F052F806220C2191
:1021A000344801F059FA4FF48050159002208DF810
:1021B00058008DF8590000208DF85A0001208DF844
:1021C0005B0015A92B4801F0FFF94FF44040ADF832
:1021D00040004FF48270ADF842000020ADF844009A
:1021E000ADF846000120ADF848004002ADF84A00C5
:1021F0001020ADF84C000020ADF84E000720ADF8DF
:10220000500010A91C4802F0B6F901211A4802F04A
:102210008FF90021184802F07FF9012202211648A7
:1022200002F092F90121480501F0FAFF134800F08D
:10223000A5FF00BF114801F04DF80028FAD1019028
:102240000D480C3002900E4803904020049000206E
:10225000059006904FF48060079000200890099048
:102260000A904FF400300B9001A9044801F05EF889
:1022700017B000BD00080240003C004088600240EA
:10228000E80300202DE9F04106460F469046002065
:102290002149087081F8C100002424E007FA04F005
:1022A00000F0800008B1F82100E0C0211A4A601C4B
:1022B000115406FA04F000F0800008B1F82100E0A3
:1022C000C021154A04F10900115408FA04F000F085
:1022D000800008B1F82100E0C0210F4A04F111008C
:1022E0001154601C84B2082CD8DB01250EE00124B7
:1022F00008E00948005D182101FB0541064A5054D9
:10230000601C84B2192CF4DB681C85B2082DEEDB4E
:1023100002F04AF8BDE8F081E803002070B50646F7
:1023200000202449087081F8C10000243CE0002509
:1023300036E004EB440030444078A84000F08000D0
:1023400008B1F82100E0C02104EB440005EBC00017
:10235000401C184A115404EB4400305CA84000F0C3
:10236000800008B1F82100E0C02104EB440005EB37
:10237000C00009300F4A115404EB44003044807807
:10238000A84000F0800008B1F82100E0C02104EB73
:10239000440005EBC0001130064A1154681CC5B258
:1023A000082DC6DB601CC4B2082CC0DB01F0FCFFAA
:1023B00070BD0000E803002070B5064600202449E7
:1023C000087081F8C10000243CE0002536E004EBF1
:1023D000440030444078A84000F0800008B1F82163
:1023E00000E0C02104EB440005EBC000401C184A8B
:1023F000115404EB4400305CA84000F0800008B1A8
:10240000F82100E0C02104EB440005EBC0000930D6
:102410000F4A115404EB440030448078A84000F087
:10242000800008B1F82100E0C02104EB440005EB76
:10243000C0001130064A1154681CC5B2082DC6DB15
:10244000601CC4B2082CC0DB01F0AEFF70BD000000
:10245000E803002070B52DED048B84B0FEF7FDFE7F
:1024600006B23046FEF7F2F841EC190B9FED610B16
:1024700053EC102BFEF709F841EC180BFEF74FF95F
:102480000546FEF739F95D4A03C20020FEF752FF08
:10249000FEF754FF06B23046FEF7D8F841EC190BB0
:1024A0009FED540B53EC102BFDF7EFFF41EC180B95
:1024B000FEF735F900EE100AB1EE400A10EE105AA0
:1024C0002846FEF719F94E4A03C20020FEF796FF90
:1024D0004C48B0F9080000EE100AB8EEC00AF0EE61
:1024E000400A494890ED000A01F0ECF804464448DF
:1024F00090ED001BB0EE410AF0EE610A53EC102B98
:102500009FED421B51EC110BFDF7BFFF41EC180B87
:10251000FEF7BAF80546394890ED001BB0EE410AC7
:10252000F0EE610A53EC102B9FED3A1B51EC110BAE
:10253000FDF7ABFF41EC180BFEF7A6F8064629465F
:1025400002F0AEF8001B00B22C4988812C4890EDB7
:10255000001BB0EE410AF0EE610A53EC102B9FED28
:102560002B1B51EC110BFDF790FF41EC180BFEF704
:102570008BF80546214890ED001BB0EE410AF0EEC5
:10258000610A53EC102B9FED231B51EC110BFDF74F
:102590007CFF41EC180BFEF777F80646294602F05F
:1025A0007FF8001B00B21649888117480068FEF7C3
:1025B000A3F841EC180B19480068FEF79DF841ECB0
:1025C000190B0E48B0F90C0002908DED008B53EC06
:1025D000192B13A003F058FC0849B1F90C00FFF7C0
:1025E000C1F80749B1F90C00FFF7E6F804B0BDECFB
:1025F000048B70BD4C478CE077BA303F100200204E
:1026000020020020500200204C00002000000000AA
:10261000000034C0000000000000344054000020DE
:1026200025662C2025662C2025640D0A000000005C
:1026300010B50020FFF796F80020FFF7BDF8002046
:10264000FFF79AF90020FFF7C1F910BD01463048A5
:102650000078002859D02F4840782E4A927840EAD6
:102660000220C0F30A0008802A488078C010294A56
:10267000D27840EA4210C0F30A0048802548C0786A
:102680008011244A127940EA8200224A527940EAB3
:102690008220C0F30A0088801E48407940101D4AFD
:1026A000927940EAC210C0F30A00C88019488079C4
:1026B0000011184AD27940EA0210C0F30A000881DA
:1026C0001448C079C011134A127A40EA4200114AF4
:1026D000527A40EA4220C0F30A0048810D48407A0D
:1026E00080100C4A927A40EA8210C0F30A00888176
:1026F0000848807A4011074AD27A40EAC200C8816D
:102700000020034A1070012070470020FCE7000001
:1027100026010020D404002000B587B001210C2040
:1027200001F07EFD0121080501F08AFD0822022149
:10273000244800F091FF0420059002208DF8180035
:102740008DF8190000208DF81A0001208DF81B006B
:1027500005A91C4800F038FF1B4801904FF4805039
:10276000ADF808004000ADF80A00C010ADF80C004C
:102770000020ADF810000420ADF80E0001A91348A8
:1027800003F00CFB35208DF8000001208DF80100CE
:102790008DF802008DF80300684601F0D1FC01229B
:1027A00040F22551094803F0D3FA012240F22441B6
:1027B000064803F0CDFA0121044803F086FA07B079
:1027C00000BD0000000C0240A08601000050004047
:1027D00000B58BB00121022001F022FD0121480447
:1027E00001F04EFD03220821214800F035FF0220B0
:1027F0008DF8280000208DF82A004FF48070099091
:1028000001208DF82B0003208DF8290009A9184814
:1028100000F0DAFEA720ADF818000020ADF81A008D
:102820008DF8220044F61F6007900020ADF82000CC
:1028300006A9104802F06AFD6020ADF804000120EE
:10284000ADF8060000200390ADF8100001A909487A
:1028500002F0DCFB0821074802F016FC01210548C4
:1028600002F083FA0121034802F08BFA0BB000BD9D
:10287000000402400044014010B50446B4F5617FF5
:1028800001DD4FF4617414F5617F00DA094C00EE4C
:10289000104AF8EEC00A9FED080A9FED081A01EEF3
:1028A000200ABCEEC00A10EE101A054802F0F9FC2E
:1028B00010BD00007CFCFFFF0080BB443F358E3F15
:1028C0000044014000B58BB00121022001F0A8FCBA
:1028D0000121880401F0D4FC03220921214800F0E1
:1028E000BBFE02208DF8280000208DF82A004FF44E
:1028F0000070099001208DF82B0003208DF829002D
:1029000009A9184800F060FEA720ADF818000020C3
:10291000ADF81A008DF8220044F61F6007900020E1
:10292000ADF8200006A9104802F0F0FC6020ADF8D8
:1029300004000120ADF8060000200390ADF810005F
:1029400001A9094802F062FB0821074802F09CFB3C
:102950000121054802F009FA0121034802F011FAA9
:102960000BB000BD000402400048014010B5044611
:10297000B4F5617F01DD4FF4617414F5617F00DA15
:10298000094C00EE104AF8EEC00A9FED080A9FEDD0
:10299000081A01EE200ABCEEC00A10EE101A054813
:1029A00002F07FFC10BD00007CFCFFFF0080BB44F8
:1029B0003F358E3F0048014010B588B004460121E4
:1029C000084601F02DFC0121102001F059FC0722DE
:1029D0000921244800F040FE07220A21214800F086
:1029E0003BFE4FF4C060069002208DF81C008DF86D
:1029F0001D0000208DF81E0001208DF81F0006A983
:102A0000184800F0E1FD02940020ADF80C00ADF88C
:102A10000E00ADF81000ADF814000C20ADF8120057
:102A200002A9114803F0BAF901210F4803F04DF94A
:102A300040210D4803F040F9012240F225510A4897
:102A400003F086F925208DF8040001208DF805009B
:102A50008DF806008DF8070001A801F071FB08B0A1
:102A600010BD0000000002400010014010B588B009
:102A700004460121084601F0D3FB0121480401F07E
:102A8000DFFB07220221214800F0E6FD0722032197
:102A90001E4800F0E1FD0C20069002208DF81C007D
:102AA0008DF81D0000208DF81E0001208DF81F00FC
:102AB00006A9164800F088FD02940020ADF80C002D
:102AC000ADF80E00ADF81000ADF814000C20ADF814
:102AD000120002A90E4803F061F901210C4803F02D
:102AE000F4F8012240F22551094803F031F926207B
:102AF0008DF8040001208DF805008DF806008DF892
:102B0000070001A801F01CFB08B010BD0000024046
:102B10000044004010B588B004460121082001F0AF
:102B20007FFB0121880401F08BFB0722082122484A
:102B300000F092FD072209211F4800F08DFD4FF49F
:102B40004070069002208DF81C008DF81D000020BA
:102B50008DF81E0001208DF81F0006A9164800F010
:102B600033FD02940020ADF80C00ADF80E00ADF876
:102B70001000ADF814000C20ADF8120002A90F48A7
:102B800003F00CF901210D4803F09FF8012240F2F7
:102B900025510A4803F0DCF827208DF804000120B5
:102BA0008DF805008DF806008DF8070001A801F0EA
:102BB000C7FA08B010BD0000000C024000480040F9
:102BC00010B503460B48007890B10B488078001F81
:102BD000C2B2002105E0C81C074C205C5854481CB8
:102BE000C1B29142F7DB0020024C2070104610BDAC
:102BF0000020FCE7EC0000209803002010B588B00E
:102C000004460121042001F00BFB0121C80401F05E
:102C100017FB08220A21224800F01EFD08220B2182
:102C20001F4800F019FD4FF44060069002208DF817
:102C30001C008DF81D0000208DF81E0001208DF86D
:102C40001F0006A9164800F0BFFC02940020ADF852
:102C50000C00ADF80E00ADF81000ADF814000C201B
:102C6000ADF8120002A90F4803F098F801210D48B1
:102C700003F02BF8012240F225510A4803F068F8CE
:102C800034208DF8040001208DF805008DF8060031
:102C90008DF8070001A801F053FA08B010BD00003C
:102CA00000080240004C004070B52DED068B154821
:102CB000FDF7D4FF00BF02211248FDF73FFF0028B7
:102CC000F9D01048FDF736FF05462846FDF7CFFC42
:102CD00041EC1A0B9FED0C0B53EC102BFDF7D5FBC1
:102CE00041EC190B9FED0A0B53EC102BFDF73FFC49
:102CF00041EC180BFDF7E7FC84B22046BDEC068BD7
:102D000070BD000000210140285C8FC2F53EAC4040
:102D10000000000000FEAF4000B58DB0012104208E
:102D200001F07EFA0121480201F0AAFA01200B907D
:102D300003208DF8300000208DF833000BA91848CF
:102D400000F042FC0121480201F0AAFA00214FF4F0
:102D5000007001F0A5FA002007900A9009904FF446
:102D60008030089007A8FDF7CDFE002001908DF877
:102D700008008DF809000390059001208DF81800D7
:102D800001A90848FDF7E4FE01210648FDF7AEFE63
:102D9000072301220A210348FDF704FF0DB000BDFF
:102DA000000802400021014000BFFEE710B5144AB0
:102DB0000021144800F043F900201349087010481E
:102DC000006840F28111884218D10D48007B0C49FF
:102DD000C97A40EA012000B20C49C8800848817BCA
:102DE000407B41EA002000B2084908810448017C88
:102DF000C07B41EA002000B20449488110BD0000B8
:102E0000C00400200064004085000020E80100208C
:102E100010B50021837A012202FA03F13D4A1268BB
:102E200042F001023B4B1A603A4A1C3212688A4354
:102E3000384B1C331A60027BCAB9364A0C3212680E
:102E40008A43344B0C331A604288C38842EA0343F6
:102E5000304A4032847A42F834300288838842EA29
:102E600003432C4A4032847A02EBC4025360027B53
:102E7000012A19D1274A0C3212680A43254B0C3318
:102E80001A604288038842EA0343224A4032847A25
:102E900042F83430C288838842EA03431D4A4032F4
:102EA000847A02EBC4025360C27A3AB9194A121DFD
:102EB00012688A43174B1B1D1A6006E0154A121D43
:102EC00012680A43134B1B1D1A60028932B9114A5A
:102ED000143212688A430F4B14331A600289012A94
:102EE00006D10C4A143212680A430A4B14331A6092
:102EF000427B012A06D1074A1C3212680A43054B5D
:102F00001C331A60034A126822F00102014B1A6056
:102F100010BD0000006600401AB143690B434361D5
:102F200002E043698B434361704730B5024600209D
:102F30000023146824F002041460146844F00104AF
:102F4000146000E05B1C546804F001041CB94FF6E7
:102F5000FF74A342F6D1546804F001040CB90020B8
:102F60006CE08C79012C04D1146844F08004146066
:102F700003E0146824F080041460CC79012C04D19F
:102F8000146844F04004146003E0146824F0400422
:102F900014600C7A012C04D1146844F020041460ED
:102FA00003E0146824F0200414604C7A012C04D14E
:102FB000146844F01004146003E0146824F0100452
:102FC00014608C7A012C04D1146844F00804146055
:102FD00003E0146824F008041460CC7A012C04D1B6
:102FE000146844F00404146003E0146824F004043A
:102FF00014608C78A407CD7844EA05640D7944EA1E
:1030000005444D7944EA05540D886D1E2C43D46166
:10301000146824F001041460002300E05B1C546871
:1030200004F001041CB14FF6FF74A342F6D15468BA
:1030300004F001040CB1002000E0012030BD10B507
:1030400000F5D87303EB01131B6803F0040313723C
:10305000137A53B900F5D87303EB01131B6840F2E0
:10306000FF7404EA5353136009E000F5D87303EBCF
:1030700001131B686FF0604404EAD303536000F54A
:10308000D87303EB01131B6803F00203537200F5BE
:10309000D87303EB01135B6803F00F03937200F521
:1030A000D87303EB01135B681B0AD37400F5D87364
:1030B00003EB01139B68D37200F5D87303EB011384
:1030C0009B681C0A147300F5D87303EB01139B680B
:1030D0001C0C547300F5D87303EB01139B681B0E93
:1030E000937300F5D87303EB0113DB68D37300F51A
:1030F000D87303EB0113DB681C0A147400F5D87352
:1031000003EB0113DB681C0C547400F5D87303EB5C
:103110000113DB681B0E937421B9C36843F02003CD
:10312000C36003E0036943F02003036110BD0000A6
:103130000246094B9A4201D2084801E0064810387D
:1031400001F000531BB1064B0B40C36002E0044B7F
:103150000B40836070470000106402400060024032
:103160007D0F7D0F21B1026842F00102026003E091
:10317000026822F00102026070470000016821F03D
:10318000010101600021016041608160C160016155
:10319000212141614A49884204D13D21484A103ADF
:1031A00091608CE046491831884205D14FF4746132
:1031B000434A103A916082E041493031884205D15A
:1031C0004FF474113E4A103A916078E03C4948311E
:1031D000884205D14FF07461394A103A91606EE02F
:1031E00037496031884204D13649354A103AD160B6
:1031F00065E033497831884204D13349304A103A86
:10320000D1605CE02E499031884204D12F492C4A8C
:10321000103AD16053E02A49A831884205D14FF0D5
:103220003D51274A103AD16049E02949884204D1EA
:103230003D21274A083A116041E02549183188426A
:1032400005D14FF47461224A083A116037E02049F1
:103250003031884205D14FF474111D4A083A11608B
:103260002DE01B494831884205D14FF07461184A5E
:10327000083A116023E016496031884204D11149AF
:10328000134A121F11601AE011497831884204D1A3
:103290000D490F4A121F116011E00D49903188420B
:1032A00004D10A490A4A121F116008E00849A831EE
:1032B000884204D14FF03D51054A121F11607047FA
:1032C000106002403D000020400F002000003D2023
:1032D00010640240014600200A6802F001020AB1AF
:1032E000012000E00020704730B503460A46002068
:1032F00000240B4DAB4201D20A4901E008491039C4
:1033000002F000550DB14C6800E00C68064D2C40F1
:1033100004EA02050DB1012000E0002030BD0000EC
:1033200010640240006002407D0F7D0F10B5002246
:103330000268134B1A40CC680B6823434C69234343
:103340008C692343CC6923430C6A23434C6A23438F
:103350008C6A23434C6B23438C6B23431A430260D8
:10336000426922F00702D1E90B3423431A43426138
:103370000B6943604B6883608B68C36010BD0000BD
:103380003F801CF04160704738B5002000906B46CC
:1033900001227521682000F04DFA05F087FBE0B9A5
:1033A000782006F05DF9782005F05AF9C82006F07B
:1033B00009F904F0D5F8094805F092F8044604F03C
:1033C00029FB40F2731003F073FFC82004F052FA97
:1033D00006F0A2FF012005F0F1FF38BD1C0100201E
:1033E000704700002DED048B82B0CDE0642007F023
:1033F000C3F96648007800B364480078012806D114
:10340000002363A202215A20FEF780FC1BE05F48E4
:103410000078022806D100235EA202215A20FEF77E
:1034200075FC10E05948007803280CD100235AA2FB
:1034300002215A20FEF76AFC05E0002357A2022170
:103440005A20FEF763FC56480088FDF710F941EC5E
:10345000190B9FED540B53EC102BFDF716F841ECB4
:10346000180BFDF711F90446002001210223224622
:10347000CDE9001003211E20FEF768FC002000901B
:1034800001904A48B0F90A20062303215A20FEF78A
:103490005DFC642007F070F9454890ED001BB0EE2C
:1034A000410AF0EE610A9FED431B53EC112B51ECE6
:1034B000100BFCF7EAFF41EC180BFDF7E5F80446AA
:1034C000002002210B462246CDE9001006211E20D5
:1034D000FEF73CFC394890ED001BB0EE410AF0EEDF
:1034E000610A9FED341B53EC112B51EC100BFCF7D0
:1034F000CCFF41EC180BFDF7C7F804460020022171
:103500000B462246CDE9001006215A20FEF71EFC8C
:103510002B4890ED001BB0EE410AF0EE610A9FEDE2
:10352000251B53EC112B51EC100BFCF7AEFF41ECBB
:10353000180BFDF7A9F80446002002210B4622468D
:10354000CDE9001007211E20FEF700FC1D4890ED7C
:10355000001BB0EE410AF0EE610A9FED161B53EC22
:10356000112B51EC100BFCF790FF41EC180BFDF701
:103570008BF80446002002210B462246CDE90010BC
:1035800007215A20FEF7E2FB30E70000850000200B
:103590005053320041505000524D5300524F53008F
:1035A000320000209A9999999999B93F50020020C8
:1035B00010020020000000000000594020020020FE
:1035C0003002002040020020F0B50A46002100230E
:1035D000002400BF3DE0012505FA01F3156805EA66
:1035E00003049C4234D105684F000326BE40B54316
:1035F000056015794E00B5400668354305601579BC
:10360000012D02D01579022D16D185684F000326B1
:10361000BE40B543856055794E00B5408668354358
:103620008560456801268E40B543456045689679BA
:103630008E40B6B235434560C5684F000326BE4094
:10364000B543C560D5794E00B540C6683543C56001
:10365000491C1029BFD3F0BDF0B5002300244D074D
:10366000ED0E02FA05F3CE1000F1200555F82650B4
:103670004E07F70E0F26BE40B543CF1000F12006CF
:1036800046F82750CE1000F1200555F8265045EA9F
:103690000304CE1000F1200545F82640F0BD024697
:1036A000002013690B400BB1012000E0002070479F
:1036B00041837047018370470AB1018300E0418371
:1036C000704700001149D1ED001A70EE611AB0EE9A
:1036D000611A0F49D1ED001A61EE811A9FED0D2A92
:1036E00030EEC22A0C49D1ED002A42EE821AFDEEDC
:1036F000E11A11EE900A41F26801884201DD0846A4
:1037000003E00649884200DA08467047540000206A
:1037100068000020000000006C00002098EFFFFF10
:1037200000BFFEE710B500200E4908600E48006893
:1037300020F440400C4908600846006840F480408E
:10374000086000200949C1F89C020120FDF7E4FC53
:10375000012004490860FDF7DFFC00200349C1F89F
:10376000980210BD9882404200040240008040420E
:1037700010B500200D4908600220FDF7CDFC0120A6
:103780000B49C1F888020220FDF7C6FC002007495A
:10379000091F08600220FDF7BFFC01200449C1F8A1
:1037A0008C020220FDF7B8FC10BD00008C024242E2
:1037B0000000424210B500200E4908600E48006823
:1037C00020F440400C4908600846006840F48040FE
:1037D000086001200949C1F89C02FDF79DFC012009
:1037E00004490860FDF798FC00200449C1F89802DC
:1037F00010BD000098824042000402400080404218
:1038000010B50120094908600220FDF785FC012060
:103810000749C1F888020220FDF77EFC0020034919
:10382000091F08600220FDF777FC10BD8C024242A0
:10383000000042422DE9F04106460F4614461D465F
:1038400000F0EAF810B90120BDE8F0817106080E19
:1038500000F08CF800F06EF918B900F02DF9012095
:10386000F2E7384600F082F800F064F900F0D4F88E
:10387000012101EB4601C8B200F078F800F05AF9D6
:103880000DE0012C04D1002000F010F8287003E0B6
:10389000012000F00BF828706D1C601EC4B2002CD3
:1038A000EFD100F009F90020CEE7000070B5054621
:1038B00000241648006820F4404014490860084677
:1038C00000680860002616E06006040E002010491B
:1038D00008600220FDF720FC01200E49C1F8980283
:1038E0000B487C38006808B1601CC4B20220FDF7A8
:1038F00013FC701CC6B2082EE6DB15B1FFF712FFF1
:1039000001E0FFF757FF204670BD000000040240B1
:10391000988240420080404270B50546002400264F
:1039200015E06006040E01200E4908600220FDF734
:10393000F3FB0D48D0F80C0208B1601CC4B20020A3
:10394000084908600220FDF7E7FB701CC6B2082E8C
:10395000E7DB15B9FFF754FF01E0FFF709FF204649
:1039600070BD0000880242420000424270B5044629
:103970001448006820F44040124908600846006876
:1039800040F48040086000200F490860002516E0E0
:10399000E0090D49091D08600120FDF7BDFB01206C
:1039A0000A49C1F89802FDF7B7FB002006490860F4
:1039B0000120FDF7B1FB6006040E681CC5B2082D9E
:1039C000E6DB70BD00040240988240420080404225
:1039D00070B50446002514E0E0090D490860022096
:1039E000FDF79AFB01200B49C1F888020220FDF780
:1039F00093FB00200649091F08606006040E681C3E
:103A0000C5B2082DE8DB01200149086070BD000047
:103A10008C0242420000424210B51648006820F471
:103A20004040144908600846006840F4804008603F
:103A30000120114908601148D0F81C0208B9002083
:103A400010BD01200C49091F0860FDF765FB00202F
:103A50000A49C1F89C0208488038006808B1002073
:103A6000EEE70120FDF758FB00200349091F08601D
:103A70000120E5E7000402409C8240420080404271
:103A800010B501200A4908600A49C1F888020220DD
:103A9000FDF742FB0020064908600220FDF73CFBD1
:103AA00000200449C1F888020220FDF735FB10BD53
:103AB0008C0242420000424210B50E48006820F4D9
:103AC00040400C4908600846006840F480400860A7
:103AD0000020094908600949C1F89C020120FDF74E
:103AE0001BFB0120044908600449C1F89C02FDF752
:103AF00013FB10BD00040240988240420080404207
:103B000010B50020094908600220FDF705FB0120DF
:103B10000749C1F888020220FDF7FEFA0120034997
:103B200008600220FDF7F8FA10BD00008C02424246
:103B30000000424210B500241448006820F44040C0
:103B400012490860084600680860012010490860B2
:103B5000FDF7E2FA01200F49C1F89802FDF7DCFAFF
:103B600007E0601CC4B2FA2C03DDFFF7A5FF0020BC
:103B700010BD0748803800680028F2D10449091FA9
:103B800008600120FDF7C8FA0120F1E700040240B7
:103B90009C8240420080404210B50024012011491F
:103BA00008600220FDF7B8FA01200F49C1F8880229
:103BB0000220FDF7B1FA07E0601CC4B2FA2C03DD65
:103BC000FFF79EFF012010BD0648803800680028DE
:103BD000F2D10449091F08600220FDF79DFA002078
:103BE000F1E700008C024242000042422DE9F04120
:103BF00005460E4617469846FFF70EFF10B90120FE
:103C0000BDE8F0816906080EFFF7B0FEFFF792FFEE
:103C100018B9FFF751FF0120F2E73046FFF7A6FE83
:103C2000FFF788FF00240BE018F80400FFF79EFE62
:103C3000FFF780FF18B9FFF73FFF0020E0E7641CA3
:103C4000BC42F1DBFFF738FF0020D9E78AE0FDF73F
:103C5000ABFC00287DD0322006F08EFDFDF7A4FCE1
:103C600000287CD0002418E0322006F085FDFDF706
:103C70009BFC00B913E03C2C0DD101203A4908709F
:103C800002213A48FFF716FDC82006F075FD022113
:103C90003648FFF70DFD601CC4B2C82CE4DB00BF42
:103CA000142C0FDA002030490870314800780628BB
:103CB00005DA2F480078401C2D49087002E00120E9
:103CC0002B490870C82C4AD100210846FDF79FFAFD
:103CD0002848006806F0A6FF2748006806F0A2FF03
:103CE00002212248FFF7E6FC40F6B83006F044FD1A
:103CF00002211E48FFF7DCFC0020FDF733FD002009
:103D0000FDF75AFD0020FDF737FE0020FDF75EFEAF
:103D1000FDF744FF22E0002318A203211846FDF717
:103D2000F5FF00231BA205211846FDF7EFFF022136
:103D30000E48FFF7BFFC0A2006F01EFD02210B48CB
:103D4000FFF7B6FC40F2DC5006F016FDFDF726FF4B
:103D500000E004E04FF4FA7006F00EFDDBE73220DD
:103D600006F00AFD73E70000780000200010024012
:103D70002C00002004000020100000202020526FA2
:103D8000626F74206861732073746F707065642053
:103D90002000000020202020506C656173652052B7
:103DA00065737461727420202000000010B5034B0D
:103DB0005A791979D878FEF765FA10BD2C000020E1
:103DC0002DE9F0413748C078802801DB012000E070
:103DD0000020054633480079802801DB012000E0FF
:103DE000002006462F484079802801DB012000E0B2
:103DF000002007462C480078292811DA2A48007844
:103E000000EB40004006040E07FB04F3DAB206FBA9
:103E100004F3D9B205FB04F3D8B2FEF733FA3AE063
:103E2000214800783D280CDAF02407FB04F3DAB2CD
:103E300006FB04F3D9B205FB04F3D8B2FEF722FA6D
:103E400029E0194800784F2811DA17480078C0F1A6
:103E50005000C006040E07FB04F3DAB206FB04F3BD
:103E6000D9B205FB04F3D8B2FEF70CFA13E00E4802
:103E700000785B280CDA0C2407FB04F3DAB206FBAB
:103E800004F3D9B205FB04F3D8B2FEF7FBF902E064
:103E900002200549087004480078401C0249087057
:103EA000BDE8F0812C000020D800002010B50248A9
:103EB000FEF782FA10BD000008BE000810B52848C1
:103EC0000078032803DA2748FEF776FA42E0244810
:103ED0000078062805DA002211461046FEF7D2F9CE
:103EE00038E01F4800780A2803DA1E48FEF764FA13
:103EF00030E01B480078142805DA002211461046ED
:103F0000FEF7C0F926E016480078172803DA1648AD
:103F1000FEF752FA1EE0124800781A2805DA00224D
:103F200011461046FEF7AEF914E00D4800781E2841
:103F300003DA0D48FEF740FA0CE00948007828281B
:103F400005DA002211461046FEF79CF902E0002037
:103F50000349087002480078401C0149087010BDF0
:103F6000D900002020BE000838BE000810B5164851
:103F7000C078164908701448007948701248407992
:103F800088701148C07848750F4801790F488175CD
:103F90000D4841790D48C17501240EE0002004EB65
:103FA00044010A4A505404EB44011144487004EBA4
:103FB000440111448870601CC4B2072CEEDB034836
:103FC000FEF7ACF910BD00002C00002070020020AC
:103FD00010B543480078082836DA41480078A8B17F
:103FE00000213F480078401E00EB40003D4A11543C
:103FF0003B480078401E00EB4000104441703848B8
:104000000078401E00EB4000104481703648C078B4
:104010003349097801EB4101324A50543248007962
:104020002F49097801EB4101114448702E4840792D
:104030002B49097801EB4101114488702848007828
:10404000401C2749087047E025480078102840DACE
:1040500023480078082818D0002121480078C0F1B2
:10406000100000EB40001F4A11541D480078C0F1B9
:10407000100000EB40001044417019480078C0F176
:10408000100000EB4000104481701748C0781449BC
:104090000978C1F10F0101EB4101124A5054124855
:1040A00000790F490978C1F10F0101EB4101114479
:1040B00048700D4840790A490978C1F10F0101EBB8
:1040C00041011144887006480078401C044908707A
:1040D00002E00020024908700248FEF71FF910BDF7
:1040E000DA000020700200202C0000200DE01E20CD
:1040F00006F042FB0548007810B1FDF787FA04E0AE
:10410000002211461046FEF7BDF8F0E77B000020C4
:1041100070B504460D461646F2B22B46214668207D
:10412000FFF788FB70BD13B5044601AB01222146A1
:104130006820FFF75BFD1CBD00BFFEE77047000075
:1041400070B5002100230F22C4781CB3174C2468DB
:1041500004F4E064C4F5E064C4F30721C1F104048D
:10416000E3B20A4144789C40E1B284781440214390
:104170000C07210E0E4C05786155047804F01F05DC
:104180000124AC4005786D11AD0005F1E025C5F8BE
:10419000004109E0047804F01F050124AC40054DFE
:1041A0000678761145F8264070BD00000CED00E061
:1041B00000E400E080E100E002490143024A1160AE
:1041C000704700000000FA050CED00E070B50446F1
:1041D0000D4605F1B001C8B200F00CF8102141EA1B
:1041E000141000F007F804F00F0141F0010000F096
:1041F00001F870BD10B5044610210548FFF758FAC4
:10420000204600F06DF910210148FFF753FA10BD68
:104210000000024010B50446204600F061F910BDD0
:1042200029B1064A12680243044B1A6004E0034AAB
:1042300012688243014B1A60704700003038024018
:1042400029B1064A12680243044B1A6004E0034A8B
:1042500012688243014B1A607047000040380240E8
:1042600029B1064A12680243044B1A6004E0034A6B
:1042700012688243014B1A607047000020380240E8
:1042800029B1064A12680243044B1A6004E0034A4B
:1042900012688243014B1A607047000044380240A4
:1042A00029B1064A12680243044B1A6004E0034A2B
:1042B00012688243014B1A607047000024380240A4
:1042C000F0B5002100220024022500260223324FEF
:1042D0003F6807F00C0121B1042905D0082937D126
:1042E00005E02E4F076036E02D4F076033E02A4F80
:1042F0003F1F3F68C7F38056274F3F1F3F6807F0B7
:104300003F036EB1264FB7FBF3F7DFF88CC0ACF17B
:10431000040CDCF800C0CCF3881C07FB0CF40CE0A8
:104320001E4FB7FBF3F7DFF870C0ACF1040CDCF8FC
:1043300000C0CCF3881C07FB0CF4174F3F1F3F68ED
:10434000C7F301477F1C7D00B4FBF5F7076002E06F
:10435000124F076000BF00BF0F4F3F6807F0F0012A
:104360000909104F7A5C0768D74047600A4F3F68D9
:1043700007F4E051890A0B4F7A5C4768D7408760A1
:10438000054F3F6807F46041490B064F7A5C476868
:10439000D740C760F0BD0000083802400024F40098
:1043A00000127A005801002010B5C2210B48FEF718
:1043B000E9FF01210948FEF7D5FE00BF084907487B
:1043C000FEF792FF0028F9D000210448FEF7CAFE4C
:1043D00003490248FEF7ACFE10BD000088600240B1
:1043E0000008002010B51B48FDF71AFB194840884B
:1043F0001949088017480088404200B24880154893
:10440000808888801548FDF72BFB144800881449E4
:104410000988084400B211490880084640881049BC
:104420004988084400B20D494880084680880C49F4
:104430008988084400B209498880084640880649AE
:10444000C88006480088404200B20881034880883E
:10445000488110BD34000020500200203A000020A6
:104460004000002000BF07F085F8174908602AE0E7
:104470000521154806F0AEF91448007898B11348A4
:104480000078012802D1FCF701FD0CE00F4800780C
:10449000022802D1FCF77EFC05E00C4800780328D6
:1044A00001D1FCF785FD0A48007810B1FDF7D2FF75
:1044B00001E0FEF7BDF8074A0749084804F008F98B
:1044C000FFF790FF00BFD3E78C000020850000209D
:1044D00079000020500000204C00002048000020FF
:1044E00010B5044600BF02210A4800F036F8002843
:1044F000F9D02146074800F03CF800BF01210548EB
:1045000000F02BF80028F9D0024800F02FF8C0B2D4
:1045100010BD00000030014021B1028842F4005279
:10452000028004E002884DF6FF731A400280704753
:1045300021B1028842F04002028004E002884FF676
:10454000BF731A40028070471AB183880B4383807F
:1045500002E083888B4383807047024600201389E2
:104560000B400BB1012000E0002070470146888914
:1045700070478181704710B50022028802F44152D1
:104580000B884C8823438C882343CC8823430C8995
:1045900023434C8923438C892343CC8923431A43E7
:1045A0000280838B4FF2FF74234083830B8A038244
:1045B00010BD00000CB50020019000903448006848
:1045C00040F480303249086000BF3148006800F490
:1045D000003000900198401C0190009818B9019893
:1045E000B0F5A04FF1D12A48006800F4003010B1B6
:1045F0000120009001E0002000900098012846D1A1
:1046000023484030006840F0805021494031086024
:104610002048006840F440401E4908601C480830AB
:1046200000681B49083108600846006840F40040F3
:1046300008600846006840F4A05008601648091F4A
:104640000860081F006840F08070091F086000BF04
:104650000F48006800F000700028F9D040F20570A3
:104660000E4908600A480830006820F00300084935
:10467000083108600846006840F00200086000BF8A
:1046800003480830006800F00C000828F8D10CBD81
:10469000003802400070004008544007003C0240CF
:1046A00070B52DED088B05460E46A9190846FBF797
:1046B000CDFF41EC1B0B9FED320B53EC102BFBF7A6
:1046C000E4FE41EC190B30480068FCF715F841ECAA
:1046D0001B0B9FED2E0B53EC102BFBF7D6FE41EC82
:1046E0001A0B53EC192BFBF729FE41EC180BFCF7C6
:1046F00016F828490860084690ED000A224880ED27
:10470000000A254890ED000A0846D0ED000A30EE78
:10471000200A214880ED000A90ED000ADFED1F0A13
:10472000B4EEE00AF1EE10FA03DD9FED1C0A80ED15
:10473000000A194890ED000ADFED190AB4EEE00A0C
:10474000F1EE10FA03D29FED160A80ED000A15482B
:1047500090ED000A0F48D0ED000A20EE200A124822
:10476000D0ED000A0C4890ED001A00EE810ABDEE73
:10477000C00A10EE104A2046BDEC088B70BD000048
:10478000333333333333D33FB0000020666666667D
:104790006666E63FA8000020AC00002000401C46F2
:1047A00000401CC670000020740000202DE9FF416D
:1047B000074655250020FCF701FD882824D120203C
:1047C000FCF7FCFCB24908702120FCF7F7FCB0496B
:1047D00048702220FCF7F2FCAD4988702320FCF7DA
:1047E000EDFCAB49C8702420FCF7E8FCA84908712F
:1047F0002520FCF7E3FCA64948715020FCF7DEFCBD
:1048000040B2A449088030E00220A149087000208D
:1048100048708870C870FF20087148710846017898
:104820002020FCF7F4FC9A4841782120FCF7EFFCAB
:10483000974881782220FCF7EAFC9548C17823202C
:10484000FCF7E5FC924801792420FCF7E0FC904855
:1048500041792520FCF7DBFC8E4801785020FCF7DD
:10486000D6FC88210020FCF7D2FC8A48B0F9000071
:10487000FEF702F88748B0F90000FEF777F8002647
:1048800029E010218448FEF713FF1E2005F074FF75
:1048900010218148FEF70EFF142005F06DFF02A8DD
:1048A000FDF7DEF87D480088BDF80810084400B226
:1048B0007A49088008464088BDF80A10084400B2CA
:1048C0007649488008468088BDF80C10084400B23C
:1048D00072498880761C0A2ED3DB7048B0F900003C
:1048E00040420A2190FBF1F000B26C490880084672
:1048F000B0F9020040420A2190FBF1F000B2674992
:1049000048800846B0F9040040420A2190FBF1F0CB
:1049100000B26249888000262AE000240FE0E00609
:10492000050E002211462846FDF7ACFC10215A481E
:10493000FEF7BEFE142005F01FFF601CC4B21E2C43
:10494000EDDB142411E004EB44008006050E002288
:1049500011462846FDF796FC10214F48FEF7AAFEA7
:10496000142005F009FF601EC4B2002CEBDC761C9D
:10497000032ED2DB002211461046FDF783FC1021E6
:104980004548FEF795FE02214548FEF793FE642058
:10499000FCF7B8FB02214248FEF78AFEFDF7FEF85D
:1049A000002340A219461846FDF7B0F9002343A2A0
:1049B00001211846FDF7AAF9002346A20221184654
:1049C000FDF7A4F9002349A202211E20FDF79EF95C
:1049D000002348A203211846FDF798F9002337A2C7
:1049E00004211846FDF792F9002334A20521184648
:1049F000FDF78CF9002345A206211846FDF786F93C
:104A0000002348A207211846FDF780F900234BA296
:104A100019464E20FDF77AF905F094FD4848032128
:104A20000023CA01CDE9001046A1494806F062FD05
:104A30004848042100238022CDE9001046A14948BE
:104A400006F058FD4848052100238022CDE90010DA
:104A500046A1494806F04EFD484806210023802221
:104A6000CDE9001046A1494806F044FD48480A2116
:104A700000238022CDE9001046A1494806F03AFD06
:104A80004848006805F010FF05F086FDBDE8FF818D
:104A90002C00002088000020000C02404000002074
:104AA000001002402020202A205441524B424F54F3
:104AB00020465744202A2020200000002D2D2D2D97
:104AC0002D2D2D2D2D2D2D2D2D2D2D2D2D2D2D2D16
:104AD0002D000000205665723A56302E3030204DA1
:104AE0006F643A524F5320202000000056332E307E
:104AF0003100000020566F6C3A31322E325620477A
:104B0000797A3A303030303020000000204D544166
:104B10003A30302E3030204D54423A2D302E303045
:104B200020000000204D54433A30302E3030204DCC
:104B300054443A2D302E30302000000054574400A9
:104B400004000020526F626F745F5461736B000049
:104B500065440008080000204B65795F5461736B61
:104B6000000000004D3C00080C0000204C69676804
:104B7000745F5461736B0000ED400008100000206A
:104B8000446973705F5461736B000000E533000883
:104B9000140000205472697669615F5461736B0080
:104BA000A553000800000020042808D14FF0E021A0
:104BB000096941F004014FF0E022116107E04FF074
:104BC000E021096921F004014FF0E02211617047F2
:104BD00010B506F0BFFC012801D006F081F910BD28
:104BE00010B51548006840F4700013490860134878
:104BF000006840F001001149086000200F490831A9
:104C000008600E4800680E4908400C4908600D48CD
:104C1000091D0860081F006820F48020091F086033
:104C2000002006490C310860FFF7C4FC4FF000601B
:104C300001498039086010BD88ED00E0003802406D
:104C4000FFFFF6FE10300024F0B50C46154600219B
:104C50000022068C4FF6FE773E400684018B028CC4
:104C60004FF60C7631407E1C06EA03162E43314384
:104C70004FF6F576324044F0010632430183028458
:104C8000F0BDF0B50C461546002100220026078C29
:104C90004FF6EF7C07EA0C070784018B028C4FF676
:104CA000FF7707EA041640F6FF4739404FF6FF77D3
:104CB00007EA033739434FF6FF7707EA05273943F9
:104CC0004FF65F773A4046F010073A43018302847B
:104CD000F0BDF0B50C461546002100220026078CD9
:104CE0004FF6FF6C07EA0C070784818B028C4FF6A6
:104CF000FF7707EA04264FF60C7739404FF6FF7727
:104D000007EA03172F4339434FF2FF573A4046F45F
:104D100080773A4381830284F0BDF0B50C46154696
:104D2000002100220026078C4EF6FF7C07EA0C07C4
:104D30000784818B028C4FF6FF7707EA043640F632
:104D4000FF4739404FF6FF7707EA052739434FF60B
:104D5000FF7707EA0337394345F6FF773A4046F4D1
:104D600080573A4381830284F0BD21B1028842F02A
:104D70008002028004E002884FF67F731A400280AE
:104D8000704721B1028842F00102028004E00288EB
:104D90004FF6FE731A400280704731B1B0F84420DC
:104DA00042F40042A0F8442005E0B0F84420C2F3E9
:104DB0000E02A0F84420704710B5044655488442BE
:104DC00008D101210846FFF76BFA00210120FFF707
:104DD00067FA9DE0B4F1804F08D101210846FFF742
:104DE0003FFA00210120FFF73BFA91E04A48844254
:104DF00008D101210220FFF733FA00210220FFF73A
:104E00002FFA85E04548844208D101210420FFF7AC
:104E100027FA00210420FFF723FA79E04048844272
:104E200008D101210820FFF71BFA00210820FFF715
:104E300017FA6DE03B48844208D101211020FFF7AA
:104E40000FFA00211020FFF70BFA61E03648844288
:104E500008D101212020FFF703FA00212020FFF7CD
:104E6000FFF955E03148844208D101210220FFF7C3
:104E700017FA00210220FFF713FA49E02C48844278
:104E800009D101210804FFF70BFA00214FF480300B
:104E9000FFF706FA3CE02748844209D10121480483
:104EA000FFF7FEF900214FF40030FFF7F9F92FE08A
:104EB0002148844209D101218804FFF7F1F900213A
:104EC0004FF48020FFF7ECF922E01C48844208D11F
:104ED00001214020FFF7C4F900214020FFF7C0F96D
:104EE00016E01748844208D101218020FFF7B8F965
:104EF00000218020FFF7B4F90AE01248844207D16C
:104F000001218015FFF7ACF90021A015FFF7A8F9E2
:104F100010BD0000000001400004004000080040F7
:104F2000000C00400010004000140040000401404C
:104F3000004001400044014000480140001800408A
:104F4000001C004000200040F0B50C4615461E46EF
:104F50000021002200230189028B038C4FF6F87791
:104F6000394021434FF6FC473A4040F201173A439B
:104F70004FF6DD773B404FF6FF7707EA06172F43E2
:104F80003B43018102830384F0BD70B505460C46A6
:104F9000208850B92389A28861882846FFF754FEEB
:104FA000E188284600F085F925E0208804280AD108
:104FB0002389A28861882846FFF763FEE188284696
:104FC00000F080F917E0208808280AD12389A288F8
:104FD00061882846FFF77DFEE188284600F07FF9CA
:104FE00009E02389A28861882846FFF796FEE188B8
:104FF000284600F07DF970BD00210180418001212B
:1050000081800021C18001817047000070B50024BB
:1050100000220023058C4FF6FE7635400584028C75
:105020008388048B4FF68F752C40B51E2C400D885D
:105030002C43751E2A408D892A434D882A43104DE2
:10504000A84202D00F4DA84213D14FF6F7752A405F
:10505000CD892A434FF6FB752A408D882A434FF6A7
:10506000FF652B404FF6FF552B400D8A2B434D8A91
:105070002B43838004838D684563028470BD0000E8
:1050800000000140000401400A460021018B4FF658
:10509000F7731940114301837047000070B5002475
:1050A00000220023058C4FF6EF7635400584028CF4
:1050B0008388048B48F6FF752C404FF6FF452C4043
:1050C0000D884FF6FF7606EA05252C434FF6DF756F
:1050D0002A408D8906EA05152A434D8806EA0515FA
:1050E0002A43154DA84202D0144DA8421DD14FF6B7
:1050F0007F752A40CD894FF6FF7606EA05152A43CB
:105100004FF6BF752A408D8806EA05152A434FF6EB
:10511000FF352B404FF2FF752B400D8A06EA8505BF
:105120002B434D8A06EA85052B43838004838D68D3
:105130008563028470BD000000000140000401404E
:105140000A460021018B4FF2FF7319404FF6FF739F
:1051500003EA0223194301837047000070B500245D
:1051600000220023058C4FF6FF6635400584028C33
:105170008388848B4FF68F752C404FF6FC752C403E
:105180000D882C434FF6FF552A408D894FF6FF7648
:1051900006EA05252A434D8806EA05252A43154DCA
:1051A000A84202D0144DA8421DD14FF2FF752A40EB
:1051B000CD894FF6FF7606EA05252A434FF6FF35DF
:1051C0002A408D8806EA05252A434EF6FF752B40B6
:1051D0004DF6FF752B400D8A06EA05152B434D8AC7
:1051E00006EA05152B43838084838D68C56302849A
:1051F00070BD000000000140000401400A4600218B
:10520000818B4FF6F773194011438183704700007B
:1052100070B5002200230024058C4EF6FF76354041
:105220000584038C8488828B48F6FF752A404FF6EC
:10523000FF452A400D884FF6FF7606EA05252A43EA
:105240004DF6FF752B408D8906EA05352B434D88B9
:1052500006EA05352B430A4DA84202D0094DA84263
:1052600008D14BF6FF752C400D8A4FF6FF7606EA03
:1052700085152C43848082838D680564038470BD0A
:1052800000000140000401400A460021818B4FF2DA
:10529000FF7319404FF6FF7303EA0223194381831A
:1052A00070474163704781637047C1637047016411
:1052B0007047028B4FF6F3731A400283028B0A4346
:1052C00002837047028B4FF2FF331A400283028B36
:1052D0004FF6FF7303EA01231A4302837047828B60
:1052E0004FF6F3731A408283828B0A43828370479E
:1052F000828B4FF2FF331A408283828B4FF6FF730B
:1053000003EA01231A4382837047000000220288C7
:10531000184B98420ED0184B98420BD0B0F1804FEA
:1053200008D0164B984205D0154B984202D0154B29
:10533000984204D14FF68F731A404B881A43124B90
:10534000984207D0114B984204D04FF6FF431A40C1
:105350000B891A4302804B68C3620B880385054B97
:10536000984202D0044B984201D18B7A03860123E4
:1053700083827047000001400004014000040040A7
:1053800000080040000C00400010004000140040E5
:105390004FF0FF3141600021018001814180817225
:1053A0007047000053E1FDF77FFCA94908800846DB
:1053B0000088B0F5856F67DC0821A648FEF76FF915
:1053C000C0F10100C5B22A460821A248FEF774F9CF
:1053D0009F480088B0F57D7F5ADA08219D48FEF786
:1053E00067F99B480088B0F5767F49DA9A480088CB
:1053F000401C99490880084600880A2848DD102189
:105400009448FEF757F908219248FEF751F993485E
:10541000006805F007FC9248006805F003FC0020D6
:10542000FCF7A0F90020FCF7C7F90020FCF7A4FA6C
:105430000020FCF7CBFAFCF7B1FB20E0002389A2A7
:1054400003211846FCF762FC00238CA205211846B4
:10545000FCF75CFC02218F48FEF72CF91E2005F0BA
:105460008BF902218B48FEF723F94FF47A7005F08F
:1054700083F9FCF793FB4FF47A7005F07DF9DDE7D3
:1054800000207549088003E008217248FEF712F9F0
:10549000814890F90000002868DD00207F490880DD
:1054A000488088806D48006805F0BCFB022179487F
:1054B000FEF700F9322005F05FF902217548FEF78A
:1054C000F7F84FF47A7005F057F908216148FEF7B4
:1054D000EFF800241FE0142005F04EF97048FCF7A7
:1054E000BFFA6E4800886E490988084400B26B49CB
:1054F0000880084640886A494988084400B26749DC
:1055000048800846808866498988084400B2634913
:105510008880601CC4B20A2CDDDB6048B0F9000052
:1055200040420A2190FBF1F000B25C490880084635
:10553000B0F9020040420A2190FBF1F000B2574955
:1055400048800846B0F9040040420A2190FBF1F07F
:1055500000B25249888008213E48FEF7ABF83F4828
:10556000006805F0B5FA00204B4908704D480078F6
:10557000002837DD3948006805F054FB4A480178B7
:105580002020FBF744FE484841782120FBF73FFEEE
:10559000454881782220FBF73AFE4348C178232012
:1055A000FBF735FE404801792420FBF730FE3E48EA
:1055B00041792520FBF72BFE02213648FEF77AF8C9
:1055C000C82005F0D9F802213248FEF771F84FF4EF
:1055D0007A7005F0D1F82148006805F079FA0020CA
:1055E000304908703148007808B330480078012805
:1055F0000ED102212748FEF75DF8C82005F0BCF85F
:1056000002212448FEF754F80020284908700EE0D3
:1056100002212048FEF74EF84FF47A7005F0ACF8FE
:1056200002211C48FEF744F8002020490870102190
:105630000848FEF734F8C0F10100C5B22A4610212F
:105640000448FEF739F84FF4FA7005F095F8AAE629
:1056500032000020000C02409000002004000020D6
:105660001000002020202020204C6F7720706F77C2
:105670006572202020202020000000002020526F92
:10568000626F74206861732073746F70706564203A
:1056900000000000001002407A00002040000020BE
:1056A000920000207C0000202C0000207D000020C3
:1056B00010B540F22551334800F020FB00285FD0A0
:1056C000304800F0D5FBC4B22F480078032823DA15
:1056D0002D48007838B9AA2C4CD12C4804700120F0
:1056E0002949087046E02848007801280BD1552C3C
:1056F00005D1264844700220234908703AE0002072
:105700002149087036E02148847003201E49087042
:10571000601E1F4908702DE01C488078401E1A4901
:10572000097888420EDD194817490978445416480B
:105730000078401C1449087015480078204414492A
:10574000087017E000201049087011480078844262
:1057500010D101200F4908700C48C078302809D1B9
:105760000A480079552805D102200B49087001200C
:105770000A490870012240F22551024800F0E8FA77
:1057800010BD0000004C0040ED00002098030020F8
:10579000EE000020EC000020850000207D000020AD
:1057A00010B540F22551304800F0A8FA00285AD030
:1057B0002D4800F05DFBC4B22C48007858B90F2C7E
:1057C0004BD12B4829490978445428480078401C7B
:1057D0002649087041E025480078182834DB94BB3E
:1057E00001202449087024480078032827D0204845
:1057F000C07880111E49097940EA81001C49497925
:1058000040EA8120C0F30A001C4908801848807AC9
:1058100040111749C97A40EAC10018494880084632
:10582000008840F2DC51884209DD144840888842F3
:1058300005DD03201049087001201149087000207F
:105840000A49087009E0FFE7094808490978445403
:1058500006480078401C05490870012240F2255195
:10586000014800F075FA10BD0050004027010020EB
:10587000D4040020260100208500002028010020FB
:105880007D00002010B540F225512C4800F036FA7A
:10589000002851D0294800F0EBFAC4B2284800781B
:1058A000032823DA2648007838B9AA2C3ED12548A7
:1058B000047001202249087038E02148007801284E
:1058C0000BD1552C05D11F48447002201C4908708B
:1058D0002CE000201A49087028E01A488470032040
:1058E00017490870601E184908701FE01548807835
:1058F000401E1349097888420EDD12481049097884
:1059000044540F480078401C0D4908700E48007838
:1059100020440D49087009E00020094908700A4830
:105920000078844202D1012008490870012240F227
:105930002551024800F00CFA10BD00000010014093
:10594000E6000020A8020020E7000020E50000207B
:1059500010B540F22551604800F0D0F900287DD004
:105960005D4800F085FAC4B25C480078032823DA69
:105970005A48007838B9AA2C04D15948047001203B
:1059800056490870A0E05548007801280BD1552CE5
:1059900005D15348447002205049087094E000201B
:1059A0004E49087090E04E48847003204B490870BF
:1059B000601E4C49087087E049488078401E47497E
:1059C000097888420EDD46484449097844544348E2
:1059D0000078401C41490870424800782044414901
:1059E000087071E000203D4908703E48007884420C
:1059F0006AD100203C4908703948C07850281BD132
:105A0000374840793649097940EA012000B23749E0
:105A1000C8803348C0793249897940EA012000B210
:105A2000324908812E48407A2D49097A40EA0120FE
:105A300000B22E49488147E02948C078512804D156
:105A40002748007940B22A4908702548C078522872
:105A500014D1234800792749087000E03AE0204833
:105A6000407948701E48807988701D48C079C87098
:105A70001B48007A08711A48407A48711848C07863
:105A8000532802D101201C4908701548C0785428B9
:105A90000BD11348007920B102211848FDF70AFE06
:105AA00003E002211548FDF703FE0D48C0785A288F
:105AB0000AD10B480079042803D10120104908704D
:105AC00002E002200E490870012240F225510248EE
:105AD00000F03EF910BD000000440040E800002046
